{
  "contractName": "EutMusicMarket",
  "abi": [
    {
      "inputs": [],
      "stateMutability": "nonpayable",
      "type": "constructor"
    },
    {
      "inputs": [],
      "name": "nftItemCount",
      "outputs": [
        {
          "internalType": "uint256",
          "name": "",
          "type": "uint256"
        }
      ],
      "stateMutability": "view",
      "type": "function"
    },
    {
      "inputs": [
        {
          "internalType": "address",
          "name": "",
          "type": "address"
        }
      ],
      "name": "nft_ledger",
      "outputs": [
        {
          "internalType": "address",
          "name": "",
          "type": "address"
        }
      ],
      "stateMutability": "view",
      "type": "function"
    },
    {
      "inputs": [
        {
          "internalType": "address",
          "name": "",
          "type": "address"
        }
      ],
      "name": "ownership_ledger",
      "outputs": [
        {
          "internalType": "address",
          "name": "",
          "type": "address"
        }
      ],
      "stateMutability": "view",
      "type": "function"
    },
    {
      "inputs": [
        {
          "internalType": "address",
          "name": "",
          "type": "address"
        }
      ],
      "name": "ownership_transaction_history",
      "outputs": [
        {
          "internalType": "address",
          "name": "nft_address",
          "type": "address"
        },
        {
          "internalType": "uint256",
          "name": "price",
          "type": "uint256"
        },
        {
          "internalType": "uint256",
          "name": "last_transaction_time",
          "type": "uint256"
        },
        {
          "internalType": "uint256",
          "name": "watermark",
          "type": "uint256"
        }
      ],
      "stateMutability": "view",
      "type": "function"
    }
  ],
  "bytecode": "0x608060405234801561001057600080fd5b506102c0806100206000396000f3fe608060405234801561001057600080fd5b506004361061004c5760003560e01c80631e3056641461005157806389584480146100bf5780639c1f60991461012d578063c044e3841461014b575b600080fd5b6100936004803603602081101561006757600080fd5b81019080803573ffffffffffffffffffffffffffffffffffffffff1690602001909291905050506101ce565b604051808273ffffffffffffffffffffffffffffffffffffffff16815260200191505060405180910390f35b610101600480360360208110156100d557600080fd5b81019080803573ffffffffffffffffffffffffffffffffffffffff169060200190929190505050610201565b604051808273ffffffffffffffffffffffffffffffffffffffff16815260200191505060405180910390f35b610135610234565b6040518082815260200191505060405180910390f35b61018d6004803603602081101561016157600080fd5b81019080803573ffffffffffffffffffffffffffffffffffffffff16906020019092919050505061023a565b604051808573ffffffffffffffffffffffffffffffffffffffff16815260200184815260200183815260200182815260200194505050505060405180910390f35b60016020528060005260406000206000915054906101000a900473ffffffffffffffffffffffffffffffffffffffff1681565b60006020528060005260406000206000915054906101000a900473ffffffffffffffffffffffffffffffffffffffff1681565b60035481565b60026020528060005260406000206000915090508060000160009054906101000a900473ffffffffffffffffffffffffffffffffffffffff1690806001015490806002015490806003015490508456fea26469706673582212209191746a70ac7239ee6df8b9bb2e0331f1f12e7cb69912fd12d37177d7e7ae6264736f6c63430007000033",
  "immutableReferences": {},
  "source": "pragma solidity >=0.6.0 <0.8.0;\n\n// SPDX-License-Identifier: MIT\n\n// EUT Master Contract\n// Holds auctions\ncontract EutMusicMarket {\n    // A ledger records on who owns which NFT\n    // user_address => nft_address\n    mapping(address => address) public ownership_ledger;\n\n    // A ledger records which NFT owned by who\n    // nft_address => user_address\n    mapping(address => address) public nft_ledger;\n\n    // Model a purchase transaction event\n    struct PurchaseTransaction {\n        address nft_address;\n        uint price;\n        uint last_transaction_time;\n        uint watermark; //how many times it's been shifted hand\n    }\n\n    // A ledger records who had which transaction\n    mapping(address => PurchaseTransaction) public ownership_transaction_history;\n\n    // Number of total nft recorded\n    uint public nftItemCount;\n\n\n    constructor () public {\n        // Pre-populate some questions\n    }\n}",
  "sourcePath": "/Users/ethw/Desktop/EUT/contracts/EutMusicMarket.sol",
  "compiler": {
    "name": "solc",
    "version": "0.7.0+commit.9e61f92b.Emscripten.clang"
  },
  "schemaVersion": "3.4.3",
  "updatedAt": "2022-05-21T05:40:07.096Z",
  "devdoc": {
    "kind": "dev",
    "methods": {},
    "version": 1
  },
  "userdoc": {
    "kind": "user",
    "methods": {},
    "version": 1
  }
}