{
  "contractName": "EutMusic",
  "abi": [
    {
      "inputs": [
        {
          "internalType": "string",
          "name": "_name",
          "type": "string"
        },
        {
          "internalType": "uint256",
          "name": "saleStart",
          "type": "uint256"
        }
      ],
      "stateMutability": "nonpayable",
      "type": "constructor"
    },
    {
      "anonymous": false,
      "inputs": [
        {
          "indexed": true,
          "internalType": "address",
          "name": "owner",
          "type": "address"
        },
        {
          "indexed": true,
          "internalType": "address",
          "name": "approved",
          "type": "address"
        },
        {
          "indexed": true,
          "internalType": "uint256",
          "name": "tokenId",
          "type": "uint256"
        }
      ],
      "name": "Approval",
      "type": "event"
    },
    {
      "anonymous": false,
      "inputs": [
        {
          "indexed": true,
          "internalType": "address",
          "name": "owner",
          "type": "address"
        },
        {
          "indexed": true,
          "internalType": "address",
          "name": "operator",
          "type": "address"
        },
        {
          "indexed": false,
          "internalType": "bool",
          "name": "approved",
          "type": "bool"
        }
      ],
      "name": "ApprovalForAll",
      "type": "event"
    },
    {
      "anonymous": false,
      "inputs": [
        {
          "indexed": true,
          "internalType": "address",
          "name": "previousOwner",
          "type": "address"
        },
        {
          "indexed": true,
          "internalType": "address",
          "name": "newOwner",
          "type": "address"
        }
      ],
      "name": "OwnershipTransferred",
      "type": "event"
    },
    {
      "anonymous": false,
      "inputs": [
        {
          "indexed": true,
          "internalType": "address",
          "name": "from",
          "type": "address"
        },
        {
          "indexed": true,
          "internalType": "address",
          "name": "to",
          "type": "address"
        },
        {
          "indexed": true,
          "internalType": "uint256",
          "name": "tokenId",
          "type": "uint256"
        }
      ],
      "name": "Transfer",
      "type": "event"
    },
    {
      "anonymous": false,
      "inputs": [
        {
          "indexed": true,
          "internalType": "uint256",
          "name": "_tokenId",
          "type": "uint256"
        }
      ],
      "name": "mintedEvent",
      "type": "event"
    },
    {
      "inputs": [],
      "name": "MAX_MUSIC",
      "outputs": [
        {
          "internalType": "uint256",
          "name": "",
          "type": "uint256"
        }
      ],
      "stateMutability": "view",
      "type": "function",
      "constant": true
    },
    {
      "inputs": [],
      "name": "REVEAL_TIMESTAMP",
      "outputs": [
        {
          "internalType": "uint256",
          "name": "",
          "type": "uint256"
        }
      ],
      "stateMutability": "view",
      "type": "function",
      "constant": true
    },
    {
      "inputs": [
        {
          "internalType": "uint256",
          "name": "",
          "type": "uint256"
        }
      ],
      "name": "_tokenPrices",
      "outputs": [
        {
          "internalType": "uint256",
          "name": "",
          "type": "uint256"
        }
      ],
      "stateMutability": "view",
      "type": "function",
      "constant": true
    },
    {
      "inputs": [
        {
          "internalType": "address",
          "name": "to",
          "type": "address"
        },
        {
          "internalType": "uint256",
          "name": "tokenId",
          "type": "uint256"
        }
      ],
      "name": "approve",
      "outputs": [],
      "stateMutability": "nonpayable",
      "type": "function"
    },
    {
      "inputs": [
        {
          "internalType": "address",
          "name": "owner",
          "type": "address"
        }
      ],
      "name": "balanceOf",
      "outputs": [
        {
          "internalType": "uint256",
          "name": "",
          "type": "uint256"
        }
      ],
      "stateMutability": "view",
      "type": "function",
      "constant": true
    },
    {
      "inputs": [],
      "name": "baseURI",
      "outputs": [
        {
          "internalType": "string",
          "name": "",
          "type": "string"
        }
      ],
      "stateMutability": "view",
      "type": "function",
      "constant": true
    },
    {
      "inputs": [
        {
          "internalType": "uint256",
          "name": "tokenId",
          "type": "uint256"
        }
      ],
      "name": "getApproved",
      "outputs": [
        {
          "internalType": "address",
          "name": "",
          "type": "address"
        }
      ],
      "stateMutability": "view",
      "type": "function",
      "constant": true
    },
    {
      "inputs": [
        {
          "internalType": "address",
          "name": "owner",
          "type": "address"
        },
        {
          "internalType": "address",
          "name": "operator",
          "type": "address"
        }
      ],
      "name": "isApprovedForAll",
      "outputs": [
        {
          "internalType": "bool",
          "name": "",
          "type": "bool"
        }
      ],
      "stateMutability": "view",
      "type": "function",
      "constant": true
    },
    {
      "inputs": [],
      "name": "lockPeriodInSec",
      "outputs": [
        {
          "internalType": "uint256",
          "name": "",
          "type": "uint256"
        }
      ],
      "stateMutability": "view",
      "type": "function",
      "constant": true
    },
    {
      "inputs": [],
      "name": "maxMusicPurchase",
      "outputs": [
        {
          "internalType": "uint256",
          "name": "",
          "type": "uint256"
        }
      ],
      "stateMutability": "view",
      "type": "function",
      "constant": true
    },
    {
      "inputs": [],
      "name": "musicPrice",
      "outputs": [
        {
          "internalType": "uint256",
          "name": "",
          "type": "uint256"
        }
      ],
      "stateMutability": "view",
      "type": "function",
      "constant": true
    },
    {
      "inputs": [],
      "name": "musicTokenSymbol",
      "outputs": [
        {
          "internalType": "string",
          "name": "",
          "type": "string"
        }
      ],
      "stateMutability": "view",
      "type": "function",
      "constant": true
    },
    {
      "inputs": [],
      "name": "name",
      "outputs": [
        {
          "internalType": "string",
          "name": "",
          "type": "string"
        }
      ],
      "stateMutability": "view",
      "type": "function",
      "constant": true
    },
    {
      "inputs": [],
      "name": "owner",
      "outputs": [
        {
          "internalType": "address",
          "name": "",
          "type": "address"
        }
      ],
      "stateMutability": "view",
      "type": "function",
      "constant": true
    },
    {
      "inputs": [
        {
          "internalType": "uint256",
          "name": "tokenId",
          "type": "uint256"
        }
      ],
      "name": "ownerOf",
      "outputs": [
        {
          "internalType": "address",
          "name": "",
          "type": "address"
        }
      ],
      "stateMutability": "view",
      "type": "function",
      "constant": true
    },
    {
      "inputs": [],
      "name": "renounceOwnership",
      "outputs": [],
      "stateMutability": "nonpayable",
      "type": "function"
    },
    {
      "inputs": [
        {
          "internalType": "address",
          "name": "from",
          "type": "address"
        },
        {
          "internalType": "address",
          "name": "to",
          "type": "address"
        },
        {
          "internalType": "uint256",
          "name": "tokenId",
          "type": "uint256"
        }
      ],
      "name": "safeTransferFrom",
      "outputs": [],
      "stateMutability": "nonpayable",
      "type": "function"
    },
    {
      "inputs": [
        {
          "internalType": "address",
          "name": "from",
          "type": "address"
        },
        {
          "internalType": "address",
          "name": "to",
          "type": "address"
        },
        {
          "internalType": "uint256",
          "name": "tokenId",
          "type": "uint256"
        },
        {
          "internalType": "bytes",
          "name": "_data",
          "type": "bytes"
        }
      ],
      "name": "safeTransferFrom",
      "outputs": [],
      "stateMutability": "nonpayable",
      "type": "function"
    },
    {
      "inputs": [],
      "name": "saleIsActive",
      "outputs": [
        {
          "internalType": "bool",
          "name": "",
          "type": "bool"
        }
      ],
      "stateMutability": "view",
      "type": "function",
      "constant": true
    },
    {
      "inputs": [
        {
          "internalType": "address",
          "name": "operator",
          "type": "address"
        },
        {
          "internalType": "bool",
          "name": "approved",
          "type": "bool"
        }
      ],
      "name": "setApprovalForAll",
      "outputs": [],
      "stateMutability": "nonpayable",
      "type": "function"
    },
    {
      "inputs": [
        {
          "internalType": "bytes4",
          "name": "interfaceId",
          "type": "bytes4"
        }
      ],
      "name": "supportsInterface",
      "outputs": [
        {
          "internalType": "bool",
          "name": "",
          "type": "bool"
        }
      ],
      "stateMutability": "view",
      "type": "function",
      "constant": true
    },
    {
      "inputs": [],
      "name": "symbol",
      "outputs": [
        {
          "internalType": "string",
          "name": "",
          "type": "string"
        }
      ],
      "stateMutability": "view",
      "type": "function",
      "constant": true
    },
    {
      "inputs": [
        {
          "internalType": "uint256",
          "name": "index",
          "type": "uint256"
        }
      ],
      "name": "tokenByIndex",
      "outputs": [
        {
          "internalType": "uint256",
          "name": "",
          "type": "uint256"
        }
      ],
      "stateMutability": "view",
      "type": "function",
      "constant": true
    },
    {
      "inputs": [
        {
          "internalType": "address",
          "name": "owner",
          "type": "address"
        },
        {
          "internalType": "uint256",
          "name": "index",
          "type": "uint256"
        }
      ],
      "name": "tokenOfOwnerByIndex",
      "outputs": [
        {
          "internalType": "uint256",
          "name": "",
          "type": "uint256"
        }
      ],
      "stateMutability": "view",
      "type": "function",
      "constant": true
    },
    {
      "inputs": [
        {
          "internalType": "uint256",
          "name": "tokenId",
          "type": "uint256"
        }
      ],
      "name": "tokenURI",
      "outputs": [
        {
          "internalType": "string",
          "name": "",
          "type": "string"
        }
      ],
      "stateMutability": "view",
      "type": "function",
      "constant": true
    },
    {
      "inputs": [],
      "name": "totalSupply",
      "outputs": [
        {
          "internalType": "uint256",
          "name": "",
          "type": "uint256"
        }
      ],
      "stateMutability": "view",
      "type": "function",
      "constant": true
    },
    {
      "inputs": [
        {
          "internalType": "address",
          "name": "from",
          "type": "address"
        },
        {
          "internalType": "address",
          "name": "to",
          "type": "address"
        },
        {
          "internalType": "uint256",
          "name": "tokenId",
          "type": "uint256"
        }
      ],
      "name": "transferFrom",
      "outputs": [],
      "stateMutability": "nonpayable",
      "type": "function"
    },
    {
      "inputs": [
        {
          "internalType": "address",
          "name": "newOwner",
          "type": "address"
        }
      ],
      "name": "transferOwnership",
      "outputs": [],
      "stateMutability": "nonpayable",
      "type": "function"
    },
    {
      "inputs": [],
      "name": "withdraw",
      "outputs": [],
      "stateMutability": "nonpayable",
      "type": "function"
    },
    {
      "inputs": [
        {
          "internalType": "uint256",
          "name": "revealTimeStamp",
          "type": "uint256"
        }
      ],
      "name": "setRevealTimestamp",
      "outputs": [],
      "stateMutability": "nonpayable",
      "type": "function"
    },
    {
      "inputs": [
        {
          "internalType": "string",
          "name": "baseURI",
          "type": "string"
        }
      ],
      "name": "setBaseURI",
      "outputs": [],
      "stateMutability": "nonpayable",
      "type": "function"
    },
    {
      "inputs": [],
      "name": "flipSaleState",
      "outputs": [],
      "stateMutability": "nonpayable",
      "type": "function"
    },
    {
      "inputs": [
        {
          "internalType": "uint256",
          "name": "numberOfTokens",
          "type": "uint256"
        }
      ],
      "name": "mintMusicMultiple",
      "outputs": [],
      "stateMutability": "payable",
      "type": "function",
      "payable": true
    },
    {
      "inputs": [],
      "name": "mintMusicOne",
      "outputs": [],
      "stateMutability": "nonpayable",
      "type": "function"
    },
    {
      "inputs": [
        {
          "internalType": "uint256",
          "name": "tokenId",
          "type": "uint256"
        }
      ],
      "name": "getEutMusicUrl",
      "outputs": [
        {
          "internalType": "string",
          "name": "",
          "type": "string"
        }
      ],
      "stateMutability": "view",
      "type": "function",
      "constant": true
    },
    {
      "inputs": [
        {
          "internalType": "uint256",
          "name": "tokenId",
          "type": "uint256"
        }
      ],
      "name": "getOwnerByTokenId",
      "outputs": [
        {
          "internalType": "address",
          "name": "",
          "type": "address"
        }
      ],
      "stateMutability": "view",
      "type": "function",
      "constant": true
    },
    {
      "inputs": [
        {
          "internalType": "address",
          "name": "_to",
          "type": "address"
        },
        {
          "internalType": "uint256",
          "name": "tokenId",
          "type": "uint256"
        }
      ],
      "name": "airDropInitialOwner",
      "outputs": [],
      "stateMutability": "nonpayable",
      "type": "function"
    },
    {
      "inputs": [
        {
          "internalType": "uint256",
          "name": "tokenId",
          "type": "uint256"
        },
        {
          "internalType": "uint256",
          "name": "price",
          "type": "uint256"
        }
      ],
      "name": "setPriceByCO",
      "outputs": [],
      "stateMutability": "nonpayable",
      "type": "function"
    },
    {
      "inputs": [
        {
          "internalType": "uint256",
          "name": "tokenId",
          "type": "uint256"
        },
        {
          "internalType": "uint256",
          "name": "price",
          "type": "uint256"
        }
      ],
      "name": "setPriceByOwner",
      "outputs": [],
      "stateMutability": "nonpayable",
      "type": "function"
    },
    {
      "inputs": [
        {
          "internalType": "uint256",
          "name": "tokenId",
          "type": "uint256"
        }
      ],
      "name": "reserveMusicByOwner",
      "outputs": [],
      "stateMutability": "nonpayable",
      "type": "function"
    },
    {
      "inputs": [
        {
          "internalType": "uint256",
          "name": "tokenId",
          "type": "uint256"
        }
      ],
      "name": "buyAsSatisfyingPrice",
      "outputs": [],
      "stateMutability": "payable",
      "type": "function",
      "payable": true
    }
  ],
  "bytecode": "0x60806040526096600b556000600c60006101000a81548160ff0219169083151502179055503480156200003157600080fd5b506040516200623438038062006234833981810160405260408110156200005757600080fd5b81019080805160405193929190846401000000008211156200007857600080fd5b838201915060208201858111156200008f57600080fd5b8251866001820283011164010000000082111715620000ad57600080fd5b8083526020830192505050908051906020019080838360005b83811015620000e3578082015181840152602081019050620000c6565b50505050905090810190601f168015620001115780820380516001836020036101000a031916815260200191505b5060405260200180519060200190929190505050816040518060400160405280600381526020017f4555540000000000000000000000000000000000000000000000000000000000815250620001746301ffc9a760e01b6200040960201b60201c565b81600690805190602001906200018c929190620015a1565b508060079080519060200190620001a5929190620015a1565b50620001be6380ac58cd60e01b6200040960201b60201c565b620001d6635b5e139f60e01b6200040960201b60201c565b620001ee63780e9d6360e01b6200040960201b60201c565b50506000620002026200051260201b60201c565b905080600a60006101000a81548173ffffffffffffffffffffffffffffffffffffffff021916908373ffffffffffffffffffffffffffffffffffffffff1602179055508073ffffffffffffffffffffffffffffffffffffffff16600073ffffffffffffffffffffffffffffffffffffffff167f8be0079c531659141344cd1fd0a4f28419497f9722a3daafe3b4186f6b6457e060405160405180910390a350620bdd808101600d81905550620002bd6200051a60201b60201c565b620002cd6200060660201b60201c565b620002dd6200060660201b60201c565b620002ed6200060660201b60201c565b6200033560006040518060400160405280600c81526020017f75726c3a2f2f6d757369633100000000000000000000000000000000000000008152506200082260201b60201c565b6200037d60016040518060400160405280600c81526020017f75726c3a2f2f6d757369633200000000000000000000000000000000000000008152506200082260201b60201c565b620003c560026040518060400160405280600c81526020017f75726c3a2f2f6d757369633300000000000000000000000000000000000000008152506200082260201b60201c565b620003d960006003620008b860201b60201c565b620003ed60016003620008b860201b60201c565b6200040160026003620008b860201b60201c565b505062001647565b63ffffffff60e01b817bffffffffffffffffffffffffffffffffffffffffffffffffffffffff19161415620004a6576040517f08c379a000000000000000000000000000000000000000000000000000000000815260040180806020018281038252601c8152602001807f4552433136353a20696e76616c696420696e746572666163652069640000000081525060200191505060405180910390fd5b6001600080837bffffffffffffffffffffffffffffffffffffffffffffffffffffffff19167bffffffffffffffffffffffffffffffffffffffffffffffffffffffff1916815260200190815260200160002060006101000a81548160ff02191690831515021790555050565b600033905090565b6200052a6200051260201b60201c565b73ffffffffffffffffffffffffffffffffffffffff166200055062000a9b60201b60201c565b73ffffffffffffffffffffffffffffffffffffffff1614620005da576040517f08c379a00000000000000000000000000000000000000000000000000000000081526004018080602001828103825260208152602001807f4f776e61626c653a2063616c6c6572206973206e6f7420746865206f776e657281525060200191505060405180910390fd5b600c60009054906101000a900460ff1615600c60006101000a81548160ff021916908315150217905550565b620006166200051260201b60201c565b73ffffffffffffffffffffffffffffffffffffffff166200063c62000a9b60201b60201c565b73ffffffffffffffffffffffffffffffffffffffff1614620006c6576040517f08c379a00000000000000000000000000000000000000000000000000000000081526004018080602001828103825260208152602001807f4f776e61626c653a2063616c6c6572206973206e6f7420746865206f776e657281525060200191505060405180910390fd5b600c60009054906101000a900460ff166200072d576040517f08c379a0000000000000000000000000000000000000000000000000000000008152600401808060200182810382526021815260200180620061986021913960400191505060405180910390fd5b600b546200075a60016200074662000ac560201b60201c565b62000ae360201b620032fa1790919060201c565b1115620007b3576040517f08c379a0000000000000000000000000000000000000000000000000000000008152600401808060200182810382526029815260200180620061df6029913960400191505060405180910390fd5b6000620007c562000ac560201b60201c565b9050620007d9338262000b6c60201b60201c565b6000600e600083815260200190815260200160002081905550807fb5389bd08a22d523a0ae760d0bf35a20b91e98c4dab1d5ad09bca210bf42eb7f60405160405180910390a250565b620008338262000b9260201b60201c565b6200088a576040517f08c379a000000000000000000000000000000000000000000000000000000000815260040180806020018281038252602c81526020018062006208602c913960400191505060405180910390fd5b80600860008481526020019081526020016000209080519060200190620008b3929190620015a1565b505050565b620008c86200051260201b60201c565b73ffffffffffffffffffffffffffffffffffffffff16620008ee62000a9b60201b60201c565b73ffffffffffffffffffffffffffffffffffffffff161462000978576040517f08c379a00000000000000000000000000000000000000000000000000000000081526004018080602001828103825260208152602001807f4f776e61626c653a2063616c6c6572206973206e6f7420746865206f776e657281525060200191505060405180910390fd5b600c60009054906101000a900460ff16620009fb576040517f08c379a00000000000000000000000000000000000000000000000000000000081526004018080602001828103825260138152602001807f53616c65206d757374206265206163746976650000000000000000000000000081525060200191505060405180910390fd5b62000a0c8262000b9260201b60201c565b62000a7f576040517f08c379a000000000000000000000000000000000000000000000000000000000815260040180806020018281038252601b8152602001807f4575744d757369633a206e6f6e6578697374656e7420746f6b656e000000000081525060200191505060405180910390fd5b80600e6000848152602001908152602001600020819055505050565b6000600a60009054906101000a900473ffffffffffffffffffffffffffffffffffffffff16905090565b600062000ade600262000bb660201b620033821760201c565b905090565b60008082840190508381101562000b62576040517f08c379a000000000000000000000000000000000000000000000000000000000815260040180806020018281038252601b8152602001807f536166654d6174683a206164646974696f6e206f766572666c6f77000000000081525060200191505060405180910390fd5b8091505092915050565b62000b8e82826040518060200160405280600081525062000bd360201b60201c565b5050565b600062000baf82600262000c5660201b620033971790919060201c565b9050919050565b600062000bcc8260000162000c7860201b60201c565b9050919050565b62000be5838362000c8960201b60201c565b62000bfa600084848462000e9d60201b60201c565b62000c51576040517f08c379a0000000000000000000000000000000000000000000000000000000008152600401808060200182810382526032815260200180620061666032913960400191505060405180910390fd5b505050565b600062000c70836000018360001b620010d960201b60201c565b905092915050565b600081600001805490509050919050565b600073ffffffffffffffffffffffffffffffffffffffff168273ffffffffffffffffffffffffffffffffffffffff16141562000d2d576040517f08c379a00000000000000000000000000000000000000000000000000000000081526004018080602001828103825260208152602001807f4552433732313a206d696e7420746f20746865207a65726f206164647265737381525060200191505060405180910390fd5b62000d3e8162000b9260201b60201c565b1562000db2576040517f08c379a000000000000000000000000000000000000000000000000000000000815260040180806020018281038252601c8152602001807f4552433732313a20746f6b656e20616c7265616479206d696e7465640000000081525060200191505060405180910390fd5b62000dc660008383620010fc60201b60201c565b62000e1e81600160008573ffffffffffffffffffffffffffffffffffffffff1673ffffffffffffffffffffffffffffffffffffffff1681526020019081526020016000206200110160201b620033b11790919060201c565b5062000e3c818360026200112360201b620033cb179092919060201c565b50808273ffffffffffffffffffffffffffffffffffffffff16600073ffffffffffffffffffffffffffffffffffffffff167fddf252ad1be2c89b69c2b068fc378daa952ba7f163c4a11628f55a4df523b3ef60405160405180910390a45050565b600062000ecb8473ffffffffffffffffffffffffffffffffffffffff166200116060201b620034001760201c565b62000eda5760019050620010d1565b60606200105763150b7a0260e01b62000ef86200051260201b60201c565b888787604051602401808573ffffffffffffffffffffffffffffffffffffffff1681526020018473ffffffffffffffffffffffffffffffffffffffff16815260200183815260200180602001828103825283818151815260200191508051906020019080838360005b8381101562000f7e57808201518184015260208101905062000f61565b50505050905090810190601f16801562000fac5780820380516001836020036101000a031916815260200191505b5095505050505050604051602081830303815290604052907bffffffffffffffffffffffffffffffffffffffffffffffffffffffff19166020820180517bffffffffffffffffffffffffffffffffffffffffffffffffffffffff838183161783525050505060405180606001604052806032815260200162006166603291398773ffffffffffffffffffffffffffffffffffffffff166200117360201b62003413179092919060201c565b905060008180602001905160208110156200107157600080fd5b8101908080519060200190929190505050905063150b7a0260e01b7bffffffffffffffffffffffffffffffffffffffffffffffffffffffff1916817bffffffffffffffffffffffffffffffffffffffffffffffffffffffff191614925050505b949350505050565b600080836001016000848152602001908152602001600020541415905092915050565b505050565b60006200111b836000018360001b6200119360201b60201c565b905092915050565b600062001157846000018460001b8473ffffffffffffffffffffffffffffffffffffffff1660001b6200120d60201b60201c565b90509392505050565b600080823b905060008111915050919050565b60606200118a8484600085620012ec60201b60201c565b90509392505050565b6000620011a78383620014ac60201b60201c565b6200120257826000018290806001815401808255809150506001900390600052602060002001600090919091909150558260000180549050836001016000848152602001908152602001600020819055506001905062001207565b600090505b92915050565b6000808460010160008581526020019081526020016000205490506000811415620012b657846000016040518060400160405280868152602001858152509080600181540180825580915050600190039060005260206000209060020201600090919091909150600082015181600001556020820151816001015550508460000180549050856001016000868152602001908152602001600020819055506001915050620012e5565b82856000016001830381548110620012ca57fe5b90600052602060002090600202016001018190555060009150505b9392505050565b60608247101562001349576040517f08c379a0000000000000000000000000000000000000000000000000000000008152600401808060200182810382526026815260200180620061b96026913960400191505060405180910390fd5b6200135a856200116060201b60201c565b620013cd576040517f08c379a000000000000000000000000000000000000000000000000000000000815260040180806020018281038252601d8152602001807f416464726573733a2063616c6c20746f206e6f6e2d636f6e747261637400000081525060200191505060405180910390fd5b600060608673ffffffffffffffffffffffffffffffffffffffff1685876040518082805190602001908083835b602083106200141f5780518252602082019150602081019050602083039250620013fa565b6001836020036101000a03801982511681845116808217855250505050505090500191505060006040518083038185875af1925050503d806000811462001483576040519150601f19603f3d011682016040523d82523d6000602084013e62001488565b606091505b5091509150620014a0828286620014cf60201b60201c565b92505050949350505050565b600080836001016000848152602001908152602001600020541415905092915050565b60608315620014e1578290506200159a565b600083511115620014f55782518084602001fd5b816040517f08c379a00000000000000000000000000000000000000000000000000000000081526004018080602001828103825283818151815260200191508051906020019080838360005b838110156200155e57808201518184015260208101905062001541565b50505050905090810190601f1680156200158c5780820380516001836020036101000a031916815260200191505b509250505060405180910390fd5b9392505050565b828054600181600116156101000203166002900490600052602060002090601f016020900481019282601f10620015e457805160ff191683800117855562001615565b8280016001018555821562001615579182015b8281111562001614578251825591602001919060010190620015f7565b5b50905062001624919062001628565b5090565b5b808211156200164357600081600090555060010162001629565b5090565b614b0f80620016576000396000f3fe6080604052600436106102465760003560e01c806355f804b311610139578063a22cb465116100b6578063c87b56dd1161007a578063c87b56dd14610ec5578063e985e9c514610f79578063eb8d244414611000578063ebdd8a1c1461102d578063f2fde38b1461105b578063f4954052146110ac57610246565b8063a22cb46514610c4c578063aa3b13d014610ca9578063ac0836ff14610cf8578063b88d4fde14610d23578063c7448ab514610e3557610246565b806370a08231116100fd57806370a0823114610a9a578063715018a614610aff5780638da5cb5b14610b1657806395d89b4114610b5757806398e7f04c14610be757610246565b806355f804b31461089857806358ed9773146109605780635b467637146109775780636352211e146109a55780636c0360eb14610a0a57610246565b80632f745c59116101c7578063410e58ea1161018b578063410e58ea146106aa57806342842e0e1461075e578063464b6aa0146107d95780634cac19af1461081e5780634f6ccce71461084957610246565b80632f745c591461059d57806334918dfd1461060c5780633b52b679146106235780633ccfd60b1461064e578063410c4d731461066557610246565b8063095ea7b31161020e578063095ea7b31461044657806315f31067146104a157806318160ddd146104cc57806318e20a38146104f757806323b872dd1461052257610246565b8063018a2c371461024b57806301ffc9a71461028657806306fdde03146102f6578063081812fc14610386578063092dd2d9146103eb575b600080fd5b34801561025757600080fd5b506102846004803603602081101561026e57600080fd5b81019080803590602001909291905050506110e7565b005b34801561029257600080fd5b506102de600480360360208110156102a957600080fd5b8101908080357bffffffffffffffffffffffffffffffffffffffffffffffffffffffff191690602001909291905050506111a0565b60405180821515815260200191505060405180910390f35b34801561030257600080fd5b5061030b611207565b6040518080602001828103825283818151815260200191508051906020019080838360005b8381101561034b578082015181840152602081019050610330565b50505050905090810190601f1680156103785780820380516001836020036101000a031916815260200191505b509250505060405180910390f35b34801561039257600080fd5b506103bf600480360360208110156103a957600080fd5b81019080803590602001909291905050506112a9565b604051808273ffffffffffffffffffffffffffffffffffffffff16815260200191505060405180910390f35b3480156103f757600080fd5b506104446004803603604081101561040e57600080fd5b81019080803573ffffffffffffffffffffffffffffffffffffffff16906020019092919080359060200190929190505050611344565b005b34801561045257600080fd5b5061049f6004803603604081101561046957600080fd5b81019080803573ffffffffffffffffffffffffffffffffffffffff1690602001909291908035906020019092919050505061158b565b005b3480156104ad57600080fd5b506104b66116cf565b6040518082815260200191505060405180910390f35b3480156104d857600080fd5b506104e16116d6565b6040518082815260200191505060405180910390f35b34801561050357600080fd5b5061050c6116e7565b6040518082815260200191505060405180910390f35b34801561052e57600080fd5b5061059b6004803603606081101561054557600080fd5b81019080803573ffffffffffffffffffffffffffffffffffffffff169060200190929190803573ffffffffffffffffffffffffffffffffffffffff169060200190929190803590602001909291905050506116ed565b005b3480156105a957600080fd5b506105f6600480360360408110156105c057600080fd5b81019080803573ffffffffffffffffffffffffffffffffffffffff16906020019092919080359060200190929190505050611763565b6040518082815260200191505060405180910390f35b34801561061857600080fd5b506106216117be565b005b34801561062f57600080fd5b50610638611899565b6040518082815260200191505060405180910390f35b34801561065a57600080fd5b506106636118a5565b005b34801561067157600080fd5b506106a86004803603604081101561068857600080fd5b8101908080359060200190929190803590602001909291905050506119a3565b005b3480156106b657600080fd5b506106e3600480360360208110156106cd57600080fd5b8101908080359060200190929190505050611b6b565b6040518080602001828103825283818151815260200191508051906020019080838360005b83811015610723578082015181840152602081019050610708565b50505050905090810190601f1680156107505780820380516001836020036101000a031916815260200191505b509250505060405180910390f35b34801561076a57600080fd5b506107d76004803603606081101561078157600080fd5b81019080803573ffffffffffffffffffffffffffffffffffffffff169060200190929190803573ffffffffffffffffffffffffffffffffffffffff16906020019092919080359060200190929190505050611b7d565b005b3480156107e557600080fd5b5061081c600480360360408110156107fc57600080fd5b810190808035906020019092919080359060200190929190505050611b9d565b005b34801561082a57600080fd5b50610833611d42565b6040518082815260200191505060405180910390f35b34801561085557600080fd5b506108826004803603602081101561086c57600080fd5b8101908080359060200190929190505050611d47565b6040518082815260200191505060405180910390f35b3480156108a457600080fd5b5061095e600480360360208110156108bb57600080fd5b81019080803590602001906401000000008111156108d857600080fd5b8201836020820111156108ea57600080fd5b8035906020019184600183028401116401000000008311171561090c57600080fd5b91908080601f016020809104026020016040519081016040528093929190818152602001838380828437600081840152601f19601f820116905080830192505050505050509192919290505050611d6a565b005b34801561096c57600080fd5b50610975611e25565b005b6109a36004803603602081101561098d57600080fd5b810190808035906020019092919050505061200d565b005b3480156109b157600080fd5b506109de600480360360208110156109c857600080fd5b810190808035906020019092919050505061229f565b604051808273ffffffffffffffffffffffffffffffffffffffff16815260200191505060405180910390f35b348015610a1657600080fd5b50610a1f6122d6565b6040518080602001828103825283818151815260200191508051906020019080838360005b83811015610a5f578082015181840152602081019050610a44565b50505050905090810190601f168015610a8c5780820380516001836020036101000a031916815260200191505b509250505060405180910390f35b348015610aa657600080fd5b50610ae960048036036020811015610abd57600080fd5b81019080803573ffffffffffffffffffffffffffffffffffffffff169060200190929190505050612378565b6040518082815260200191505060405180910390f35b348015610b0b57600080fd5b50610b1461244d565b005b348015610b2257600080fd5b50610b2b6125bd565b604051808273ffffffffffffffffffffffffffffffffffffffff16815260200191505060405180910390f35b348015610b6357600080fd5b50610b6c6125e7565b6040518080602001828103825283818151815260200191508051906020019080838360005b83811015610bac578082015181840152602081019050610b91565b50505050905090810190601f168015610bd95780820380516001836020036101000a031916815260200191505b509250505060405180910390f35b348015610bf357600080fd5b50610c2060048036036020811015610c0a57600080fd5b8101908080359060200190929190505050612689565b604051808273ffffffffffffffffffffffffffffffffffffffff16815260200191505060405180910390f35b348015610c5857600080fd5b50610ca760048036036040811015610c6f57600080fd5b81019080803573ffffffffffffffffffffffffffffffffffffffff16906020019092919080351515906020019092919050505061269b565b005b348015610cb557600080fd5b50610ce260048036036020811015610ccc57600080fd5b8101908080359060200190929190505050612851565b6040518082815260200191505060405180910390f35b348015610d0457600080fd5b50610d0d612869565b6040518082815260200191505060405180910390f35b348015610d2f57600080fd5b50610e3360048036036080811015610d4657600080fd5b81019080803573ffffffffffffffffffffffffffffffffffffffff169060200190929190803573ffffffffffffffffffffffffffffffffffffffff1690602001909291908035906020019092919080359060200190640100000000811115610dad57600080fd5b820183602082011115610dbf57600080fd5b80359060200191846001830284011164010000000083111715610de157600080fd5b91908080601f016020809104026020016040519081016040528093929190818152602001838380828437600081840152601f19601f82011690508083019250505050505050919291929050505061286f565b005b348015610e4157600080fd5b50610e4a6128e7565b6040518080602001828103825283818151815260200191508051906020019080838360005b83811015610e8a578082015181840152602081019050610e6f565b50505050905090810190601f168015610eb75780820380516001836020036101000a031916815260200191505b509250505060405180910390f35b348015610ed157600080fd5b50610efe60048036036020811015610ee857600080fd5b8101908080359060200190929190505050612920565b6040518080602001828103825283818151815260200191508051906020019080838360005b83811015610f3e578082015181840152602081019050610f23565b50505050905090810190601f168015610f6b5780820380516001836020036101000a031916815260200191505b509250505060405180910390f35b348015610f8557600080fd5b50610fe860048036036040811015610f9c57600080fd5b81019080803573ffffffffffffffffffffffffffffffffffffffff169060200190929190803573ffffffffffffffffffffffffffffffffffffffff169060200190929190505050612bf1565b60405180821515815260200191505060405180910390f35b34801561100c57600080fd5b50611015612c85565b60405180821515815260200191505060405180910390f35b6110596004803603602081101561104357600080fd5b8101908080359060200190929190505050612c98565b005b34801561106757600080fd5b506110aa6004803603602081101561107e57600080fd5b81019080803573ffffffffffffffffffffffffffffffffffffffff169060200190929190505050612f6e565b005b3480156110b857600080fd5b506110e5600480360360208110156110cf57600080fd5b8101908080359060200190929190505050613163565b005b6110ef61342b565b73ffffffffffffffffffffffffffffffffffffffff1661110d6125bd565b73ffffffffffffffffffffffffffffffffffffffff1614611196576040517f08c379a00000000000000000000000000000000000000000000000000000000081526004018080602001828103825260208152602001807f4f776e61626c653a2063616c6c6572206973206e6f7420746865206f776e657281525060200191505060405180910390fd5b80600d8190555050565b6000806000837bffffffffffffffffffffffffffffffffffffffffffffffffffffffff19167bffffffffffffffffffffffffffffffffffffffffffffffffffffffff1916815260200190815260200160002060009054906101000a900460ff169050919050565b606060068054600181600116156101000203166002900480601f01602080910402602001604051908101604052809291908181526020018280546001816001161561010002031660029004801561129f5780601f106112745761010080835404028352916020019161129f565b820191906000526020600020905b81548152906001019060200180831161128257829003601f168201915b5050505050905090565b60006112b482613433565b611309576040517f08c379a000000000000000000000000000000000000000000000000000000000815260040180806020018281038252602c8152602001806149e0602c913960400191505060405180910390fd5b6004600083815260200190815260200160002060009054906101000a900473ffffffffffffffffffffffffffffffffffffffff169050919050565b61134c61342b565b73ffffffffffffffffffffffffffffffffffffffff1661136a6125bd565b73ffffffffffffffffffffffffffffffffffffffff16146113f3576040517f08c379a00000000000000000000000000000000000000000000000000000000081526004018080602001828103825260208152602001807f4f776e61626c653a2063616c6c6572206973206e6f7420746865206f776e657281525060200191505060405180910390fd5b600c60009054906101000a900460ff16611475576040517f08c379a00000000000000000000000000000000000000000000000000000000081526004018080602001828103825260138152602001807f53616c65206d757374206265206163746976650000000000000000000000000081525060200191505060405180910390fd5b61147e81613433565b6114f0576040517f08c379a000000000000000000000000000000000000000000000000000000000815260040180806020018281038252601b8152602001807f4575744d757369633a206e6f6e6578697374656e7420746f6b656e000000000081525060200191505060405180910390fd5b6114f981612689565b73ffffffffffffffffffffffffffffffffffffffff163373ffffffffffffffffffffffffffffffffffffffff161461157c576040517f08c379a0000000000000000000000000000000000000000000000000000000008152600401808060200182810382526024815260200180614a646024913960400191505060405180910390fd5b611587338383613450565b5050565b60006115968261229f565b90508073ffffffffffffffffffffffffffffffffffffffff168373ffffffffffffffffffffffffffffffffffffffff16141561161d576040517f08c379a0000000000000000000000000000000000000000000000000000000008152600401808060200182810382526021815260200180614a886021913960400191505060405180910390fd5b8073ffffffffffffffffffffffffffffffffffffffff1661163c61342b565b73ffffffffffffffffffffffffffffffffffffffff16148061166b575061166a8161166561342b565b612bf1565b5b6116c0576040517f08c379a00000000000000000000000000000000000000000000000000000000081526004018080602001828103825260388152602001806149126038913960400191505060405180910390fd5b6116ca8383613693565b505050565b620bdd8081565b60006116e26002613382565b905090565b600d5481565b6116fe6116f861342b565b8261374c565b611753576040517f08c379a0000000000000000000000000000000000000000000000000000000008152600401808060200182810382526031815260200180614aa96031913960400191505060405180910390fd5b61175e838383613450565b505050565b60006117b682600160008673ffffffffffffffffffffffffffffffffffffffff1673ffffffffffffffffffffffffffffffffffffffff16815260200190815260200160002061384090919063ffffffff16565b905092915050565b6117c661342b565b73ffffffffffffffffffffffffffffffffffffffff166117e46125bd565b73ffffffffffffffffffffffffffffffffffffffff161461186d576040517f08c379a00000000000000000000000000000000000000000000000000000000081526004018080602001828103825260208152602001807f4f776e61626c653a2063616c6c6572206973206e6f7420746865206f776e657281525060200191505060405180910390fd5b600c60009054906101000a900460ff1615600c60006101000a81548160ff021916908315150217905550565b67011c37937e08000081565b6118ad61342b565b73ffffffffffffffffffffffffffffffffffffffff166118cb6125bd565b73ffffffffffffffffffffffffffffffffffffffff1614611954576040517f08c379a00000000000000000000000000000000000000000000000000000000081526004018080602001828103825260208152602001807f4f776e61626c653a2063616c6c6572206973206e6f7420746865206f776e657281525060200191505060405180910390fd5b60004790503373ffffffffffffffffffffffffffffffffffffffff166108fc829081150290604051600060405180830381858888f1935050505015801561199f573d6000803e3d6000fd5b5050565b6119ab61342b565b73ffffffffffffffffffffffffffffffffffffffff166119c96125bd565b73ffffffffffffffffffffffffffffffffffffffff1614611a52576040517f08c379a00000000000000000000000000000000000000000000000000000000081526004018080602001828103825260208152602001807f4f776e61626c653a2063616c6c6572206973206e6f7420746865206f776e657281525060200191505060405180910390fd5b600c60009054906101000a900460ff16611ad4576040517f08c379a00000000000000000000000000000000000000000000000000000000081526004018080602001828103825260138152602001807f53616c65206d757374206265206163746976650000000000000000000000000081525060200191505060405180910390fd5b611add82613433565b611b4f576040517f08c379a000000000000000000000000000000000000000000000000000000000815260040180806020018281038252601b8152602001807f4575744d757369633a206e6f6e6578697374656e7420746f6b656e000000000081525060200191505060405180910390fd5b80600e6000848152602001908152602001600020819055505050565b6060611b7682612920565b9050919050565b611b988383836040518060200160405280600081525061286f565b505050565b600c60009054906101000a900460ff16611c1f576040517f08c379a00000000000000000000000000000000000000000000000000000000081526004018080602001828103825260138152602001807f53616c65206d757374206265206163746976650000000000000000000000000081525060200191505060405180910390fd5b611c2882613433565b611c9a576040517f08c379a000000000000000000000000000000000000000000000000000000000815260040180806020018281038252601b8152602001807f4575744d757369633a206e6f6e6578697374656e7420746f6b656e000000000081525060200191505060405180910390fd5b611ca382612689565b73ffffffffffffffffffffffffffffffffffffffff163373ffffffffffffffffffffffffffffffffffffffff1614611d26576040517f08c379a00000000000000000000000000000000000000000000000000000000081526004018080602001828103825260288152602001806148096028913960400191505060405180910390fd5b80600e6000848152602001908152602001600020819055505050565b601481565b600080611d5e83600261385a90919063ffffffff16565b50905080915050919050565b611d7261342b565b73ffffffffffffffffffffffffffffffffffffffff16611d906125bd565b73ffffffffffffffffffffffffffffffffffffffff1614611e19576040517f08c379a00000000000000000000000000000000000000000000000000000000081526004018080602001828103825260208152602001807f4f776e61626c653a2063616c6c6572206973206e6f7420746865206f776e657281525060200191505060405180910390fd5b611e2281613886565b50565b611e2d61342b565b73ffffffffffffffffffffffffffffffffffffffff16611e4b6125bd565b73ffffffffffffffffffffffffffffffffffffffff1614611ed4576040517f08c379a00000000000000000000000000000000000000000000000000000000081526004018080602001828103825260208152602001807f4f776e61626c653a2063616c6c6572206973206e6f7420746865206f776e657281525060200191505060405180910390fd5b600c60009054906101000a900460ff16611f39576040517f08c379a00000000000000000000000000000000000000000000000000000000081526004018080602001828103825260218152602001806148316021913960400191505060405180910390fd5b600b54611f576001611f496116d6565b6132fa90919063ffffffff16565b1115611fae576040517f08c379a00000000000000000000000000000000000000000000000000000000081526004018080602001828103825260298152602001806148e96029913960400191505060405180910390fd5b6000611fb86116d6565b9050611fc433826138a0565b6000600e600083815260200190815260200160002081905550807fb5389bd08a22d523a0ae760d0bf35a20b91e98c4dab1d5ad09bca210bf42eb7f60405160405180910390a250565b600c60009054906101000a900460ff1661208f576040517f08c379a00000000000000000000000000000000000000000000000000000000081526004018080602001828103825260138152602001807f53616c65206d757374206265206163746976650000000000000000000000000081525060200191505060405180910390fd5b6000339050600061209f83612689565b90506120aa83613433565b61211c576040517f08c379a000000000000000000000000000000000000000000000000000000000815260040180806020018281038252601b8152602001807f4575744d757369633a206e6f6e6578697374656e7420746f6b656e000000000081525060200191505060405180910390fd5b6000600e60008581526020019081526020016000205414156121a6576040517f08c379a00000000000000000000000000000000000000000000000000000000081526004018080602001828103825260158152602001807f746f6b656e206973206e6f7420666f722073616c65000000000000000000000081525060200191505060405180910390fd5b600e60008481526020019081526020016000205434101561222f576040517f08c379a00000000000000000000000000000000000000000000000000000000081526004018080602001828103825260168152602001807f7072696365206973206e6f74207361746973666965640000000000000000000081525060200191505060405180910390fd5b61223a818385613450565b8073ffffffffffffffffffffffffffffffffffffffff166108fc349081150290604051600060405180830381858888f19350505050158015612280573d6000803e3d6000fd5b506000600e600085815260200190815260200160002081905550505050565b60006122cf826040518060600160405280602981526020016149746029913960026138be9092919063ffffffff16565b9050919050565b606060098054600181600116156101000203166002900480601f01602080910402602001604051908101604052809291908181526020018280546001816001161561010002031660029004801561236e5780601f106123435761010080835404028352916020019161236e565b820191906000526020600020905b81548152906001019060200180831161235157829003601f168201915b5050505050905090565b60008073ffffffffffffffffffffffffffffffffffffffff168273ffffffffffffffffffffffffffffffffffffffff1614156123ff576040517f08c379a000000000000000000000000000000000000000000000000000000000815260040180806020018281038252602a81526020018061494a602a913960400191505060405180910390fd5b612446600160008473ffffffffffffffffffffffffffffffffffffffff1673ffffffffffffffffffffffffffffffffffffffff1681526020019081526020016000206138dd565b9050919050565b61245561342b565b73ffffffffffffffffffffffffffffffffffffffff166124736125bd565b73ffffffffffffffffffffffffffffffffffffffff16146124fc576040517f08c379a00000000000000000000000000000000000000000000000000000000081526004018080602001828103825260208152602001807f4f776e61626c653a2063616c6c6572206973206e6f7420746865206f776e657281525060200191505060405180910390fd5b600073ffffffffffffffffffffffffffffffffffffffff16600a60009054906101000a900473ffffffffffffffffffffffffffffffffffffffff1673ffffffffffffffffffffffffffffffffffffffff167f8be0079c531659141344cd1fd0a4f28419497f9722a3daafe3b4186f6b6457e060405160405180910390a36000600a60006101000a81548173ffffffffffffffffffffffffffffffffffffffff021916908373ffffffffffffffffffffffffffffffffffffffff160217905550565b6000600a60009054906101000a900473ffffffffffffffffffffffffffffffffffffffff16905090565b606060078054600181600116156101000203166002900480601f01602080910402602001604051908101604052809291908181526020018280546001816001161561010002031660029004801561267f5780601f106126545761010080835404028352916020019161267f565b820191906000526020600020905b81548152906001019060200180831161266257829003601f168201915b5050505050905090565b60006126948261229f565b9050919050565b6126a361342b565b73ffffffffffffffffffffffffffffffffffffffff168273ffffffffffffffffffffffffffffffffffffffff161415612744576040517f08c379a00000000000000000000000000000000000000000000000000000000081526004018080602001828103825260198152602001807f4552433732313a20617070726f766520746f2063616c6c65720000000000000081525060200191505060405180910390fd5b806005600061275161342b565b73ffffffffffffffffffffffffffffffffffffffff1673ffffffffffffffffffffffffffffffffffffffff16815260200190815260200160002060008473ffffffffffffffffffffffffffffffffffffffff1673ffffffffffffffffffffffffffffffffffffffff16815260200190815260200160002060006101000a81548160ff0219169083151502179055508173ffffffffffffffffffffffffffffffffffffffff166127fe61342b565b73ffffffffffffffffffffffffffffffffffffffff167f17307eab39ab6107e8899845ad3d59bd9653f200f220920489ca2b5937696c318360405180821515815260200191505060405180910390a35050565b600e6020528060005260406000206000915090505481565b600b5481565b61288061287a61342b565b8361374c565b6128d5576040517f08c379a0000000000000000000000000000000000000000000000000000000008152600401808060200182810382526031815260200180614aa96031913960400191505060405180910390fd5b6128e1848484846138f2565b50505050565b6040518060400160405280600381526020017f455554000000000000000000000000000000000000000000000000000000000081525081565b606061292b82613433565b612980576040517f08c379a000000000000000000000000000000000000000000000000000000000815260040180806020018281038252602f815260200180614a35602f913960400191505060405180910390fd5b6060600860008481526020019081526020016000208054600181600116156101000203166002900480601f016020809104026020016040519081016040528092919081815260200182805460018160011615610100020316600290048015612a295780601f106129fe57610100808354040283529160200191612a29565b820191906000526020600020905b815481529060010190602001808311612a0c57829003601f168201915b505050505090506060612a3a6122d6565b9050600081511415612a50578192505050612bec565b600082511115612b215780826040516020018083805190602001908083835b60208310612a925780518252602082019150602081019050602083039250612a6f565b6001836020036101000a03801982511681845116808217855250505050505090500182805190602001908083835b60208310612ae35780518252602082019150602081019050602083039250612ac0565b6001836020036101000a0380198251168184511680821785525050505050509050019250505060405160208183030381529060405292505050612bec565b80612b2b85613964565b6040516020018083805190602001908083835b60208310612b615780518252602082019150602081019050602083039250612b3e565b6001836020036101000a03801982511681845116808217855250505050505090500182805190602001908083835b60208310612bb25780518252602082019150602081019050602083039250612b8f565b6001836020036101000a03801982511681845116808217855250505050505090500192505050604051602081830303815290604052925050505b919050565b6000600560008473ffffffffffffffffffffffffffffffffffffffff1673ffffffffffffffffffffffffffffffffffffffff16815260200190815260200160002060008373ffffffffffffffffffffffffffffffffffffffff1673ffffffffffffffffffffffffffffffffffffffff16815260200190815260200160002060009054906101000a900460ff16905092915050565b600c60009054906101000a900460ff1681565b612ca061342b565b73ffffffffffffffffffffffffffffffffffffffff16612cbe6125bd565b73ffffffffffffffffffffffffffffffffffffffff1614612d47576040517f08c379a00000000000000000000000000000000000000000000000000000000081526004018080602001828103825260208152602001807f4f776e61626c653a2063616c6c6572206973206e6f7420746865206f776e657281525060200191505060405180910390fd5b600c60009054906101000a900460ff16612dac576040517f08c379a00000000000000000000000000000000000000000000000000000000081526004018080602001828103825260218152602001806148316021913960400191505060405180910390fd5b6014811115612e06576040517f08c379a00000000000000000000000000000000000000000000000000000000081526004018080602001828103825260218152602001806148c86021913960400191505060405180910390fd5b600b54612e2382612e156116d6565b6132fa90919063ffffffff16565b1115612e7a576040517f08c379a00000000000000000000000000000000000000000000000000000000081526004018080602001828103825260298152602001806148e96029913960400191505060405180910390fd5b34612e968267011c37937e080000613aab90919063ffffffff16565b1115612f0a576040517f08c379a000000000000000000000000000000000000000000000000000000000815260040180806020018281038252601f8152602001807f45746865722076616c75652073656e74206973206e6f7420636f72726563740081525060200191505060405180910390fd5b60005b81811015612f6a576000612f1f6116d6565b9050600b54612f2c6116d6565b1015612f5c576000819050612f4133826138a0565b6000600e600083815260200190815260200160002081905550505b508080600101915050612f0d565b5050565b612f7661342b565b73ffffffffffffffffffffffffffffffffffffffff16612f946125bd565b73ffffffffffffffffffffffffffffffffffffffff161461301d576040517f08c379a00000000000000000000000000000000000000000000000000000000081526004018080602001828103825260208152602001807f4f776e61626c653a2063616c6c6572206973206e6f7420746865206f776e657281525060200191505060405180910390fd5b600073ffffffffffffffffffffffffffffffffffffffff168173ffffffffffffffffffffffffffffffffffffffff1614156130a3576040517f08c379a00000000000000000000000000000000000000000000000000000000081526004018080602001828103825260268152602001806147e36026913960400191505060405180910390fd5b8073ffffffffffffffffffffffffffffffffffffffff16600a60009054906101000a900473ffffffffffffffffffffffffffffffffffffffff1673ffffffffffffffffffffffffffffffffffffffff167f8be0079c531659141344cd1fd0a4f28419497f9722a3daafe3b4186f6b6457e060405160405180910390a380600a60006101000a81548173ffffffffffffffffffffffffffffffffffffffff021916908373ffffffffffffffffffffffffffffffffffffffff16021790555050565b600c60009054906101000a900460ff166131e5576040517f08c379a00000000000000000000000000000000000000000000000000000000081526004018080602001828103825260138152602001807f53616c65206d757374206265206163746976650000000000000000000000000081525060200191505060405180910390fd5b6131ee81613433565b613260576040517f08c379a000000000000000000000000000000000000000000000000000000000815260040180806020018281038252601b8152602001807f4575744d757369633a206e6f6e6578697374656e7420746f6b656e000000000081525060200191505060405180910390fd5b61326981612689565b73ffffffffffffffffffffffffffffffffffffffff163373ffffffffffffffffffffffffffffffffffffffff16146132ec576040517f08c379a00000000000000000000000000000000000000000000000000000000081526004018080602001828103825260288152602001806148096028913960400191505060405180910390fd5b6132f7816000611b9d565b50565b600080828401905083811015613378576040517f08c379a000000000000000000000000000000000000000000000000000000000815260040180806020018281038252601b8152602001807f536166654d6174683a206164646974696f6e206f766572666c6f77000000000081525060200191505060405180910390fd5b8091505092915050565b600061339082600001613b31565b9050919050565b60006133a9836000018360001b613b42565b905092915050565b60006133c3836000018360001b613b65565b905092915050565b60006133f7846000018460001b8473ffffffffffffffffffffffffffffffffffffffff1660001b613bd5565b90509392505050565b600080823b905060008111915050919050565b60606134228484600085613cb1565b90509392505050565b600033905090565b600061344982600261339790919063ffffffff16565b9050919050565b8273ffffffffffffffffffffffffffffffffffffffff166134708261229f565b73ffffffffffffffffffffffffffffffffffffffff16146134dc576040517f08c379a0000000000000000000000000000000000000000000000000000000008152600401808060200182810382526029815260200180614a0c6029913960400191505060405180910390fd5b600073ffffffffffffffffffffffffffffffffffffffff168273ffffffffffffffffffffffffffffffffffffffff161415613562576040517f08c379a00000000000000000000000000000000000000000000000000000000081526004018080602001828103825260248152602001806148526024913960400191505060405180910390fd5b61356d838383613e5a565b613578600082613693565b6135c981600160008673ffffffffffffffffffffffffffffffffffffffff1673ffffffffffffffffffffffffffffffffffffffff168152602001908152602001600020613e5f90919063ffffffff16565b5061361b81600160008573ffffffffffffffffffffffffffffffffffffffff1673ffffffffffffffffffffffffffffffffffffffff1681526020019081526020016000206133b190919063ffffffff16565b50613632818360026133cb9092919063ffffffff16565b50808273ffffffffffffffffffffffffffffffffffffffff168473ffffffffffffffffffffffffffffffffffffffff167fddf252ad1be2c89b69c2b068fc378daa952ba7f163c4a11628f55a4df523b3ef60405160405180910390a4505050565b816004600083815260200190815260200160002060006101000a81548173ffffffffffffffffffffffffffffffffffffffff021916908373ffffffffffffffffffffffffffffffffffffffff160217905550808273ffffffffffffffffffffffffffffffffffffffff166137068361229f565b73ffffffffffffffffffffffffffffffffffffffff167f8c5be1e5ebec7d5bd14f71427d1e84f3dd0314c0f7b2291e5b200ac8c7c3b92560405160405180910390a45050565b600061375782613433565b6137ac576040517f08c379a000000000000000000000000000000000000000000000000000000000815260040180806020018281038252602c81526020018061489c602c913960400191505060405180910390fd5b60006137b78361229f565b90508073ffffffffffffffffffffffffffffffffffffffff168473ffffffffffffffffffffffffffffffffffffffff16148061382657508373ffffffffffffffffffffffffffffffffffffffff1661380e846112a9565b73ffffffffffffffffffffffffffffffffffffffff16145b8061383757506138368185612bf1565b5b91505092915050565b600061384f8360000183613e79565b60001c905092915050565b60008060008061386d8660000186613efc565b915091508160001c8160001c9350935050509250929050565b806009908051906020019061389c9291906146f1565b5050565b6138ba828260405180602001604052806000815250613f95565b5050565b60006138d1846000018460001b84614006565b60001c90509392505050565b60006138eb826000016140fc565b9050919050565b6138fd848484613450565b6139098484848461410d565b61395e576040517f08c379a00000000000000000000000000000000000000000000000000000000081526004018080602001828103825260328152602001806147b16032913960400191505060405180910390fd5b50505050565b606060008214156139ac576040518060400160405280600181526020017f30000000000000000000000000000000000000000000000000000000000000008152509050613aa6565b600082905060005b600082146139d6578080600101915050600a82816139ce57fe5b0491506139b4565b60608167ffffffffffffffff811180156139ef57600080fd5b506040519080825280601f01601f191660200182016040528015613a225781602001600182028036833780820191505090505b50905060006001830390508593505b60008414613a9e57600a8481613a4357fe5b0660300160f81b82828060019003935081518110613a5d57fe5b60200101907effffffffffffffffffffffffffffffffffffffffffffffffffffffffffffff1916908160001a905350600a8481613a9657fe5b049350613a31565b819450505050505b919050565b600080831415613abe5760009050613b2b565b6000828402905082848281613acf57fe5b0414613b26576040517f08c379a00000000000000000000000000000000000000000000000000000000081526004018080602001828103825260218152602001806149bf6021913960400191505060405180910390fd5b809150505b92915050565b600081600001805490509050919050565b600080836001016000848152602001908152602001600020541415905092915050565b6000613b718383614326565b613bca578260000182908060018154018082558091505060019003906000526020600020016000909190919091505582600001805490508360010160008481526020019081526020016000208190555060019050613bcf565b600090505b92915050565b6000808460010160008581526020019081526020016000205490506000811415613c7c57846000016040518060400160405280868152602001858152509080600181540180825580915050600190039060005260206000209060020201600090919091909150600082015181600001556020820151816001015550508460000180549050856001016000868152602001908152602001600020819055506001915050613caa565b82856000016001830381548110613c8f57fe5b90600052602060002090600202016001018190555060009150505b9392505050565b606082471015613d0c576040517f08c379a00000000000000000000000000000000000000000000000000000000081526004018080602001828103825260268152602001806148766026913960400191505060405180910390fd5b613d1585613400565b613d87576040517f08c379a000000000000000000000000000000000000000000000000000000000815260040180806020018281038252601d8152602001807f416464726573733a2063616c6c20746f206e6f6e2d636f6e747261637400000081525060200191505060405180910390fd5b600060608673ffffffffffffffffffffffffffffffffffffffff1685876040518082805190602001908083835b60208310613dd75780518252602082019150602081019050602083039250613db4565b6001836020036101000a03801982511681845116808217855250505050505090500191505060006040518083038185875af1925050503d8060008114613e39576040519150601f19603f3d011682016040523d82523d6000602084013e613e3e565b606091505b5091509150613e4e828286614349565b92505050949350505050565b505050565b6000613e71836000018360001b614415565b905092915050565b600081836000018054905011613eda576040517f08c379a000000000000000000000000000000000000000000000000000000000815260040180806020018281038252602281526020018061478f6022913960400191505060405180910390fd5b826000018281548110613ee957fe5b9060005260206000200154905092915050565b60008082846000018054905011613f5e576040517f08c379a000000000000000000000000000000000000000000000000000000000815260040180806020018281038252602281526020018061499d6022913960400191505060405180910390fd5b6000846000018481548110613f6f57fe5b906000526020600020906002020190508060000154816001015492509250509250929050565b613f9f83836144fd565b613fac600084848461410d565b614001576040517f08c379a00000000000000000000000000000000000000000000000000000000081526004018080602001828103825260328152602001806147b16032913960400191505060405180910390fd5b505050565b600080846001016000858152602001908152602001600020549050600081141583906140cd576040517f08c379a00000000000000000000000000000000000000000000000000000000081526004018080602001828103825283818151815260200191508051906020019080838360005b83811015614092578082015181840152602081019050614077565b50505050905090810190601f1680156140bf5780820380516001836020036101000a031916815260200191505b509250505060405180910390fd5b508460000160018203815481106140e057fe5b9060005260206000209060020201600101549150509392505050565b600081600001805490509050919050565b600061412e8473ffffffffffffffffffffffffffffffffffffffff16613400565b61413b576001905061431e565b60606142a563150b7a0260e01b61415061342b565b888787604051602401808573ffffffffffffffffffffffffffffffffffffffff1681526020018473ffffffffffffffffffffffffffffffffffffffff16815260200183815260200180602001828103825283818151815260200191508051906020019080838360005b838110156141d45780820151818401526020810190506141b9565b50505050905090810190601f1680156142015780820380516001836020036101000a031916815260200191505b5095505050505050604051602081830303815290604052907bffffffffffffffffffffffffffffffffffffffffffffffffffffffff19166020820180517bffffffffffffffffffffffffffffffffffffffffffffffffffffffff83818316178352505050506040518060600160405280603281526020016147b1603291398773ffffffffffffffffffffffffffffffffffffffff166134139092919063ffffffff16565b905060008180602001905160208110156142be57600080fd5b8101908080519060200190929190505050905063150b7a0260e01b7bffffffffffffffffffffffffffffffffffffffffffffffffffffffff1916817bffffffffffffffffffffffffffffffffffffffffffffffffffffffff191614925050505b949350505050565b600080836001016000848152602001908152602001600020541415905092915050565b606083156143595782905061440e565b60008351111561436c5782518084602001fd5b816040517f08c379a00000000000000000000000000000000000000000000000000000000081526004018080602001828103825283818151815260200191508051906020019080838360005b838110156143d35780820151818401526020810190506143b8565b50505050905090810190601f1680156144005780820380516001836020036101000a031916815260200191505b509250505060405180910390fd5b9392505050565b600080836001016000848152602001908152602001600020549050600081146144f1576000600182039050600060018660000180549050039050600086600001828154811061446057fe5b906000526020600020015490508087600001848154811061447d57fe5b90600052602060002001819055506001830187600101600083815260200190815260200160002081905550866000018054806144b557fe5b600190038181906000526020600020016000905590558660010160008781526020019081526020016000206000905560019450505050506144f7565b60009150505b92915050565b600073ffffffffffffffffffffffffffffffffffffffff168273ffffffffffffffffffffffffffffffffffffffff1614156145a0576040517f08c379a00000000000000000000000000000000000000000000000000000000081526004018080602001828103825260208152602001807f4552433732313a206d696e7420746f20746865207a65726f206164647265737381525060200191505060405180910390fd5b6145a981613433565b1561461c576040517f08c379a000000000000000000000000000000000000000000000000000000000815260040180806020018281038252601c8152602001807f4552433732313a20746f6b656e20616c7265616479206d696e7465640000000081525060200191505060405180910390fd5b61462860008383613e5a565b61467981600160008573ffffffffffffffffffffffffffffffffffffffff1673ffffffffffffffffffffffffffffffffffffffff1681526020019081526020016000206133b190919063ffffffff16565b50614690818360026133cb9092919063ffffffff16565b50808273ffffffffffffffffffffffffffffffffffffffff16600073ffffffffffffffffffffffffffffffffffffffff167fddf252ad1be2c89b69c2b068fc378daa952ba7f163c4a11628f55a4df523b3ef60405160405180910390a45050565b828054600181600116156101000203166002900490600052602060002090601f016020900481019282601f1061473257805160ff1916838001178555614760565b82800160010185558215614760579182015b8281111561475f578251825591602001919060010190614744565b5b50905061476d9190614771565b5090565b5b8082111561478a576000816000905550600101614772565b509056fe456e756d657261626c655365743a20696e646578206f7574206f6620626f756e64734552433732313a207472616e7366657220746f206e6f6e20455243373231526563656976657220696d706c656d656e7465724f776e61626c653a206e6577206f776e657220697320746865207a65726f20616464726573734575744d757369633a2073656e64657220646f6573206e6f74206f776e207468697320746f6b656e53616c65206d7573742062652061637469766520746f206d696e74204d757369634552433732313a207472616e7366657220746f20746865207a65726f2061646472657373416464726573733a20696e73756666696369656e742062616c616e636520666f722063616c6c4552433732313a206f70657261746f7220717565727920666f72206e6f6e6578697374656e7420746f6b656e43616e206f6e6c79206d696e7420323020746f6b656e7320617420612074696d65507572636861736520776f756c6420657863656564206d617820737570706c79206f66204d757369634552433732313a20617070726f76652063616c6c6572206973206e6f74206f776e6572206e6f7220617070726f76656420666f7220616c6c4552433732313a2062616c616e636520717565727920666f7220746865207a65726f20616464726573734552433732313a206f776e657220717565727920666f72206e6f6e6578697374656e7420746f6b656e456e756d657261626c654d61703a20696e646578206f7574206f6620626f756e6473536166654d6174683a206d756c7469706c69636174696f6e206f766572666c6f774552433732313a20617070726f76656420717565727920666f72206e6f6e6578697374656e7420746f6b656e4552433732313a207472616e73666572206f6620746f6b656e2074686174206973206e6f74206f776e4552433732314d657461646174613a2055524920717565727920666f72206e6f6e6578697374656e7420746f6b656e4575744d757369633a20434f20646f6573206e6f74206f776e207468697320746f6b656e4552433732313a20617070726f76616c20746f2063757272656e74206f776e65724552433732313a207472616e736665722063616c6c6572206973206e6f74206f776e6572206e6f7220617070726f766564a2646970667358221220c23127c97df9bbf87a18ecbab8504fcb389492b246048d4ba6e02e85a0929fd064736f6c634300070000334552433732313a207472616e7366657220746f206e6f6e20455243373231526563656976657220696d706c656d656e74657253616c65206d7573742062652061637469766520746f206d696e74204d75736963416464726573733a20696e73756666696369656e742062616c616e636520666f722063616c6c507572636861736520776f756c6420657863656564206d617820737570706c79206f66204d757369634552433732314d657461646174613a2055524920736574206f66206e6f6e6578697374656e7420746f6b656e",
  "immutableReferences": {},
  "source": "// SPDX-License-Identifier: MIT\n\nimport \"./EutLibrary.sol\";\nimport \"./ERC721.sol\";\n\n// EutMusic is authored by Eut.io\n// Holds who owns what\n// Contract.balance Holds CO's profit.\n\npragma solidity >=0.6.0 <0.8.0;\n/**\n * @title EutMusic contract\n * @dev Extends ERC721 Non-Fungible Token Standard basic implementation\n */\ncontract EutMusic is ERC721, Ownable {\n    using SafeMath for uint256;\n\n    string public constant musicTokenSymbol = \"EUT\";\n\n    uint256 public constant musicPrice = 80000000000000000; //0.08 ETH\n\n    uint public constant maxMusicPurchase = 20;\n\n    uint256 public MAX_MUSIC = 150;\n\n    bool public saleIsActive = false;\n\n    uint256 public REVEAL_TIMESTAMP;\n\n    uint public constant lockPeriodInSec = 86400 * 9; // Reveal after 9 days\n\n    // prices\n    // tokenId : expectedPriceToBeSold\n    mapping (uint256 => uint) public _tokenPrices;\n\n    // Events\n    event mintedEvent (\n        uint indexed _tokenId\n    );\n\n    constructor(string memory _name, uint256 saleStart) ERC721(_name, musicTokenSymbol) {\n        REVEAL_TIMESTAMP = saleStart + lockPeriodInSec;\n\n        //Self minting for demo\n        //Remove in prod\n        flipSaleState();\n        mintMusicOne();\n        mintMusicOne();\n        mintMusicOne();\n        _setTokenURI(0,\"url://music1\");\n        _setTokenURI(1,\"url://music2\");\n        _setTokenURI(2,\"url://music3\");\n        setPriceByCO(0,3);\n        setPriceByCO(1,3);\n        setPriceByCO(2,3);\n    }\n\n    // withdraw removes an NFT from the collection and moves it to the caller\n    function withdraw() public onlyOwner {\n        uint balance = address(this).balance;\n        msg.sender.transfer(balance);\n    }\n\n    /**\n     * Discord that you're standing right behind him.\n     */\n    function setRevealTimestamp(uint256 revealTimeStamp) public onlyOwner {\n        REVEAL_TIMESTAMP = revealTimeStamp;\n    }\n\n\n    function setBaseURI(string memory baseURI) public onlyOwner {\n        _setBaseURI(baseURI);\n    }\n\n    /*\n    * Pause sale if active, make active if paused\n    */\n    function flipSaleState() public onlyOwner {\n        saleIsActive = !saleIsActive;\n    }\n\n    /**\n    * Mints Music, By CO(contract owner)\n    */\n    function mintMusicMultiple(uint numberOfTokens) public onlyOwner payable {\n        require(saleIsActive, \"Sale must be active to mint Music\");\n        require(numberOfTokens <= maxMusicPurchase, \"Can only mint 20 tokens at a time\");\n        require(totalSupply().add(numberOfTokens) <= MAX_MUSIC, \"Purchase would exceed max supply of Music\");\n        require(musicPrice.mul(numberOfTokens) <= msg.value, \"Ether value sent is not correct\");\n\n        for(uint i = 0; i < numberOfTokens; i++) {\n            uint mintIndex = totalSupply(); // Current watermark\n            if (totalSupply() < MAX_MUSIC) {\n                uint256 tokenId = mintIndex;\n                _safeMint(msg.sender, tokenId);\n                _tokenPrices[tokenId] = 0; // Not for sale until otherwise\n            }\n        }\n    }\n\n    function mintMusicOne() public onlyOwner {\n        require(saleIsActive, \"Sale must be active to mint Music\");\n        require(totalSupply().add(1) <= MAX_MUSIC, \"Purchase would exceed max supply of Music\");\n        uint tokenId = totalSupply(); // Current watermark\n        _safeMint(msg.sender, tokenId);\n        _tokenPrices[tokenId] = 0; // Not for sale until otherwise\n        emit mintedEvent(tokenId);\n    }\n\n    // EUT SPECIFIC Functions\n    function getEutMusicUrl(uint256 tokenId) public view returns (string memory)  {\n        return tokenURI(tokenId);\n    }\n\n    function getOwnerByTokenId(uint256 tokenId) public view returns (address) {\n        return ownerOf(tokenId);\n    }\n\n    // EUT SPECIFIC Transaction Functions\n    /**\n    * CO can assign music to any specific owner\n    * can only set for freshly minted musics\n    */\n    function airDropInitialOwner(address _to, uint256 tokenId) public onlyOwner {\n        require(saleIsActive, \"Sale must be active\");\n        require(_exists(tokenId), \"EutMusic: nonexistent token\");\n        require(msg.sender==getOwnerByTokenId(tokenId), \"EutMusic: CO does not own this token\");\n        _transfer(msg.sender, _to, tokenId);\n    }\n\n    // CO overrides owner\n    function setPriceByCO(uint256 tokenId, uint price) public onlyOwner {\n        require(saleIsActive, \"Sale must be active\");\n        require(_exists(tokenId), \"EutMusic: nonexistent token\");\n        _tokenPrices[tokenId] = price;\n    }\n\n    function setPriceByOwner(uint256 tokenId, uint price) public {\n        require(saleIsActive, \"Sale must be active\");\n        require(_exists(tokenId), \"EutMusic: nonexistent token\");\n        require(msg.sender==getOwnerByTokenId(tokenId), \"EutMusic: sender does not own this token\");\n        _tokenPrices[tokenId] = price;\n    }\n\n    function reserveMusicByOwner(uint256 tokenId) public{\n        require(saleIsActive, \"Sale must be active\");\n        require(_exists(tokenId), \"EutMusic: nonexistent token\");\n        require(msg.sender==getOwnerByTokenId(tokenId), \"EutMusic: sender does not own this token\");\n        setPriceByOwner(tokenId, 0);\n    }\n\n    // An order is executed if price is satisfied.\n    function buyAsSatisfyingPrice(uint256 tokenId) public payable{\n        require(saleIsActive, \"Sale must be active\");\n        address buyer=msg.sender;\n        address seller=getOwnerByTokenId(tokenId);\n        require(_exists(tokenId), \"EutMusic: nonexistent token\");\n        require(_tokenPrices[tokenId]!=0, \"token is not for sale\"); //token is for sale\n        require(msg.value >= _tokenPrices[tokenId], \"price is not satisfied\");\n\n        _transfer(seller, buyer, tokenId); //ERC721 does not confirm msg.sender has to be seller.\n        payable(seller).transfer(msg.value);\n        _tokenPrices[tokenId]=0;\n    }\n\n}",
  "sourcePath": "/Users/ethw/Desktop/EUT/contracts/EutMusic.sol",
  "compiler": {
    "name": "solc",
    "version": "0.7.0+commit.9e61f92b.Emscripten.clang"
  },
  "schemaVersion": "3.4.3",
  "updatedAt": "2022-05-21T07:13:02.862Z",
  "networkType": "ethereum",
  "devdoc": {
    "details": "Extends ERC721 Non-Fungible Token Standard basic implementation",
    "kind": "dev",
    "methods": {
      "approve(address,uint256)": {
        "details": "See {IERC721-approve}."
      },
      "balanceOf(address)": {
        "details": "See {IERC721-balanceOf}."
      },
      "baseURI()": {
        "details": "Returns the base URI set via {_setBaseURI}. This will be automatically added as a prefix in {tokenURI} to each token's URI, or to the token ID if no specific URI is set for that token ID."
      },
      "getApproved(uint256)": {
        "details": "See {IERC721-getApproved}."
      },
      "isApprovedForAll(address,address)": {
        "details": "See {IERC721-isApprovedForAll}."
      },
      "name()": {
        "details": "See {IERC721Metadata-name}."
      },
      "owner()": {
        "details": "Returns the address of the current owner."
      },
      "ownerOf(uint256)": {
        "details": "See {IERC721-ownerOf}."
      },
      "renounceOwnership()": {
        "details": "Leaves the contract without owner. It will not be possible to call `onlyOwner` functions anymore. Can only be called by the current owner. NOTE: Renouncing ownership will leave the contract without an owner, thereby removing any functionality that is only available to the owner."
      },
      "safeTransferFrom(address,address,uint256)": {
        "details": "See {IERC721-safeTransferFrom}."
      },
      "safeTransferFrom(address,address,uint256,bytes)": {
        "details": "See {IERC721-safeTransferFrom}."
      },
      "setApprovalForAll(address,bool)": {
        "details": "See {IERC721-setApprovalForAll}."
      },
      "supportsInterface(bytes4)": {
        "details": "See {IERC165-supportsInterface}. Time complexity O(1), guaranteed to always use less than 30 000 gas."
      },
      "symbol()": {
        "details": "See {IERC721Metadata-symbol}."
      },
      "tokenByIndex(uint256)": {
        "details": "See {IERC721Enumerable-tokenByIndex}."
      },
      "tokenOfOwnerByIndex(address,uint256)": {
        "details": "See {IERC721Enumerable-tokenOfOwnerByIndex}."
      },
      "tokenURI(uint256)": {
        "details": "See {IERC721Metadata-tokenURI}."
      },
      "totalSupply()": {
        "details": "See {IERC721Enumerable-totalSupply}."
      },
      "transferFrom(address,address,uint256)": {
        "details": "See {IERC721-transferFrom}."
      },
      "transferOwnership(address)": {
        "details": "Transfers ownership of the contract to a new account (`newOwner`). Can only be called by the current owner."
      }
    },
    "title": "EutMusic contract",
    "version": 1
  },
  "userdoc": {
    "kind": "user",
    "methods": {
      "airDropInitialOwner(address,uint256)": {
        "notice": "CO can assign music to any specific owner can only set for freshly minted musics"
      },
      "mintMusicMultiple(uint256)": {
        "notice": "Mints Music, By CO(contract owner)"
      },
      "setRevealTimestamp(uint256)": {
        "notice": "Discord that you're standing right behind him."
      }
    },
    "version": 1
  }
}